{
  "contractName": "DoctorRegistration",
  "abi": [
    {
      "anonymous": false,
      "inputs": [
        {
          "indexed": false,
          "internalType": "string",
          "name": "hhNumber",
          "type": "string"
        },
        {
          "indexed": false,
          "internalType": "string",
          "name": "doctorName",
          "type": "string"
        },
        {
          "indexed": false,
          "internalType": "address",
          "name": "walletAddress",
          "type": "address"
        }
      ],
      "name": "DoctorRegistered",
      "type": "event"
    },
    {
      "inputs": [
        {
          "internalType": "string",
          "name": "",
          "type": "string"
        },
        {
          "internalType": "string",
          "name": "",
          "type": "string"
        }
      ],
      "name": "doctorPermissions",
      "outputs": [
        {
          "internalType": "bool",
          "name": "",
          "type": "bool"
        }
      ],
      "stateMutability": "view",
      "type": "function"
    },
    {
      "inputs": [
        {
          "internalType": "string",
          "name": "_doctorName",
          "type": "string"
        },
        {
          "internalType": "string",
          "name": "_hospitalName",
          "type": "string"
        },
        {
          "internalType": "string",
          "name": "_dateOfBirth",
          "type": "string"
        },
        {
          "internalType": "string",
          "name": "_gender",
          "type": "string"
        },
        {
          "internalType": "string",
          "name": "_email",
          "type": "string"
        },
        {
          "internalType": "string",
          "name": "_hhNumber",
          "type": "string"
        },
        {
          "internalType": "string",
          "name": "_specialization",
          "type": "string"
        },
        {
          "internalType": "string",
          "name": "_department",
          "type": "string"
        },
        {
          "internalType": "string",
          "name": "_designation",
          "type": "string"
        },
        {
          "internalType": "string",
          "name": "_workExperience",
          "type": "string"
        },
        {
          "internalType": "string",
          "name": "_password",
          "type": "string"
        }
      ],
      "name": "registerDoctor",
      "outputs": [],
      "stateMutability": "nonpayable",
      "type": "function"
    },
    {
      "inputs": [
        {
          "internalType": "string",
          "name": "_hhNumber",
          "type": "string"
        }
      ],
      "name": "isRegisteredDoctor",
      "outputs": [
        {
          "internalType": "bool",
          "name": "",
          "type": "bool"
        }
      ],
      "stateMutability": "view",
      "type": "function"
    },
    {
      "inputs": [
        {
          "internalType": "string",
          "name": "_hhNumber",
          "type": "string"
        }
      ],
      "name": "getDoctorDetails",
      "outputs": [
        {
          "internalType": "address",
          "name": "_walletAddress",
          "type": "address"
        },
        {
          "internalType": "string",
          "name": "_doctorName",
          "type": "string"
        },
        {
          "internalType": "string",
          "name": "_hospitalName",
          "type": "string"
        },
        {
          "internalType": "string",
          "name": "_dateOfBirth",
          "type": "string"
        },
        {
          "internalType": "string",
          "name": "_gender",
          "type": "string"
        },
        {
          "internalType": "string",
          "name": "_email",
          "type": "string"
        },
        {
          "internalType": "string",
          "name": "_specialization",
          "type": "string"
        },
        {
          "internalType": "string",
          "name": "_department",
          "type": "string"
        },
        {
          "internalType": "string",
          "name": "_designation",
          "type": "string"
        },
        {
          "internalType": "string",
          "name": "_workExperience",
          "type": "string"
        }
      ],
      "stateMutability": "view",
      "type": "function"
    },
    {
      "inputs": [
        {
          "internalType": "string",
          "name": "_hhNumber",
          "type": "string"
        },
        {
          "internalType": "string",
          "name": "_password",
          "type": "string"
        }
      ],
      "name": "validatePassword",
      "outputs": [
        {
          "internalType": "bool",
          "name": "",
          "type": "bool"
        }
      ],
      "stateMutability": "view",
      "type": "function"
    },
    {
      "inputs": [
        {
          "internalType": "string",
          "name": "_patientNumber",
          "type": "string"
        },
        {
          "internalType": "string",
          "name": "_doctorNumber",
          "type": "string"
        },
        {
          "internalType": "string",
          "name": "_patientName",
          "type": "string"
        }
      ],
      "name": "grantPermission",
      "outputs": [],
      "stateMutability": "nonpayable",
      "type": "function"
    },
    {
      "inputs": [
        {
          "internalType": "string",
          "name": "_patientNumber",
          "type": "string"
        },
        {
          "internalType": "string",
          "name": "_doctorNumber",
          "type": "string"
        }
      ],
      "name": "isPermissionGranted",
      "outputs": [
        {
          "internalType": "bool",
          "name": "",
          "type": "bool"
        }
      ],
      "stateMutability": "view",
      "type": "function"
    },
    {
      "inputs": [
        {
          "internalType": "string",
          "name": "_patientNumber",
          "type": "string"
        },
        {
          "internalType": "string",
          "name": "_doctorNumber",
          "type": "string"
        }
      ],
      "name": "revokePermission",
      "outputs": [],
      "stateMutability": "nonpayable",
      "type": "function"
    },
    {
      "inputs": [
        {
          "internalType": "string",
          "name": "_doctorNumber",
          "type": "string"
        }
      ],
      "name": "getPatientList",
      "outputs": [
        {
          "components": [
            {
              "internalType": "string",
              "name": "patient_number",
              "type": "string"
            },
            {
              "internalType": "string",
              "name": "patient_name",
              "type": "string"
            }
          ],
          "internalType": "struct DoctorRegistration.PatientList[]",
          "name": "",
          "type": "tuple[]"
        }
      ],
      "stateMutability": "view",
      "type": "function"
    },
    {
      "inputs": [
        {
          "internalType": "string",
          "name": "_doctorNumber",
          "type": "string"
        }
      ],
      "name": "getPatientCount",
      "outputs": [
        {
          "internalType": "uint256",
          "name": "",
          "type": "uint256"
        }
      ],
      "stateMutability": "view",
      "type": "function"
    }
  ],
  "bytecode": "0x608060405234801561001057600080fd5b506124fa806100206000396000f3fe608060405234801561001057600080fd5b506004361061009e5760003560e01c806391c12f761161006657806391c12f7614610174578063a46bef15146101a4578063ac5f9fd0146101d4578063d120c10c146101f0578063f2ccf15c146102205761009e565b80631cd1bd58146100a35780633e769767146100bf57806344334733146100f85780635df67040146101285780637babdb2614610144575b600080fd5b6100bd60048036038101906100b8919061169a565b610250565b005b6100d960048036038101906100d491906118c2565b61056e565b6040516100ef9a999897969594939291906119cb565b60405180910390f35b610112600480360381019061010d9190611aa6565b610d4c565b60405161011f9190611b39565b60405180910390f35b610142600480360381019061013d9190611b54565b610da7565b005b61015e60048036038101906101599190611aa6565b610e8f565b60405161016b9190611b39565b60405180910390f35b61018e600480360381019061018991906118c2565b610fb4565b60405161019b9190611d4b565b60405180910390f35b6101be60048036038101906101b991906118c2565b611155565b6040516101cb9190611b39565b60405180910390f35b6101ee60048036038101906101e99190611aa6565b6111cc565b005b61020a60048036038101906102059190611aa6565b611466565b6040516102179190611b39565b60405180910390f35b61023a600480360381019061023591906118c2565b6114b8565b6040516102479190611d86565b60405180910390f35b600073ffffffffffffffffffffffffffffffffffffffff166000876040516102789190611ddd565b908152602001604051809103902060009054906101000a900473ffffffffffffffffffffffffffffffffffffffff1673ffffffffffffffffffffffffffffffffffffffff16146102fd576040517f08c379a00000000000000000000000000000000000000000000000000000000081526004016102f490611e40565b60405180910390fd5b60006040518061018001604052803373ffffffffffffffffffffffffffffffffffffffff1681526020018d81526020018c81526020018b81526020018a81526020018981526020018881526020018781526020018681526020018581526020018481526020018381525090508060018860405161037a9190611ddd565b908152602001604051809103902060008201518160000160006101000a81548173ffffffffffffffffffffffffffffffffffffffff021916908373ffffffffffffffffffffffffffffffffffffffff16021790555060208201518160010190816103e4919061206c565b5060408201518160020190816103fa919061206c565b506060820151816003019081610410919061206c565b506080820151816004019081610426919061206c565b5060a082015181600501908161043c919061206c565b5060c0820151816006019081610452919061206c565b5060e0820151816007019081610468919061206c565b5061010082015181600801908161047f919061206c565b50610120820151816009019081610496919061206c565b5061014082015181600a0190816104ad919061206c565b5061016082015181600b0190816104c4919061206c565b50905050336000886040516104d99190611ddd565b908152602001604051809103902060006101000a81548173ffffffffffffffffffffffffffffffffffffffff021916908373ffffffffffffffffffffffffffffffffffffffff1602179055507f8d3f9c8a09dcd94bc9c847110caac40824996b777a45809b38b82b9aa3f71ec8878d336040516105589392919061213e565b60405180910390a1505050505050505050505050565b60006060806060806060806060806060600073ffffffffffffffffffffffffffffffffffffffff1660008c6040516105a69190611ddd565b908152602001604051809103902060009054906101000a900473ffffffffffffffffffffffffffffffffffffffff1673ffffffffffffffffffffffffffffffffffffffff160361062b576040517f08c379a0000000000000000000000000000000000000000000000000000000008152600401610622906121cf565b60405180910390fd5b600060018c60405161063d9190611ddd565b9081526020016040518091039020604051806101800160405290816000820160009054906101000a900473ffffffffffffffffffffffffffffffffffffffff1673ffffffffffffffffffffffffffffffffffffffff1673ffffffffffffffffffffffffffffffffffffffff1681526020016001820180546106bd90611e8f565b80601f01602080910402602001604051908101604052809291908181526020018280546106e990611e8f565b80156107365780601f1061070b57610100808354040283529160200191610736565b820191906000526020600020905b81548152906001019060200180831161071957829003601f168201915b5050505050815260200160028201805461074f90611e8f565b80601f016020809104026020016040519081016040528092919081815260200182805461077b90611e8f565b80156107c85780601f1061079d576101008083540402835291602001916107c8565b820191906000526020600020905b8154815290600101906020018083116107ab57829003601f168201915b505050505081526020016003820180546107e190611e8f565b80601f016020809104026020016040519081016040528092919081815260200182805461080d90611e8f565b801561085a5780601f1061082f5761010080835404028352916020019161085a565b820191906000526020600020905b81548152906001019060200180831161083d57829003601f168201915b5050505050815260200160048201805461087390611e8f565b80601f016020809104026020016040519081016040528092919081815260200182805461089f90611e8f565b80156108ec5780601f106108c1576101008083540402835291602001916108ec565b820191906000526020600020905b8154815290600101906020018083116108cf57829003601f168201915b5050505050815260200160058201805461090590611e8f565b80601f016020809104026020016040519081016040528092919081815260200182805461093190611e8f565b801561097e5780601f106109535761010080835404028352916020019161097e565b820191906000526020600020905b81548152906001019060200180831161096157829003601f168201915b5050505050815260200160068201805461099790611e8f565b80601f01602080910402602001604051908101604052809291908181526020018280546109c390611e8f565b8015610a105780601f106109e557610100808354040283529160200191610a10565b820191906000526020600020905b8154815290600101906020018083116109f357829003601f168201915b50505050508152602001600782018054610a2990611e8f565b80601f0160208091040260200160405190810160405280929190818152602001828054610a5590611e8f565b8015610aa25780601f10610a7757610100808354040283529160200191610aa2565b820191906000526020600020905b815481529060010190602001808311610a8557829003601f168201915b50505050508152602001600882018054610abb90611e8f565b80601f0160208091040260200160405190810160405280929190818152602001828054610ae790611e8f565b8015610b345780601f10610b0957610100808354040283529160200191610b34565b820191906000526020600020905b815481529060010190602001808311610b1757829003601f168201915b50505050508152602001600982018054610b4d90611e8f565b80601f0160208091040260200160405190810160405280929190818152602001828054610b7990611e8f565b8015610bc65780601f10610b9b57610100808354040283529160200191610bc6565b820191906000526020600020905b815481529060010190602001808311610ba957829003601f168201915b50505050508152602001600a82018054610bdf90611e8f565b80601f0160208091040260200160405190810160405280929190818152602001828054610c0b90611e8f565b8015610c585780601f10610c2d57610100808354040283529160200191610c58565b820191906000526020600020905b815481529060010190602001808311610c3b57829003601f168201915b50505050508152602001600b82018054610c7190611e8f565b80601f0160208091040260200160405190810160405280929190818152602001828054610c9d90611e8f565b8015610cea5780601f10610cbf57610100808354040283529160200191610cea565b820191906000526020600020905b815481529060010190602001808311610ccd57829003601f168201915b5050505050815250509050806000015181602001518260400151836060015184608001518560a001518660e001518761010001518861012001518961014001519a509a509a509a509a509a509a509a509a509a50509193959799509193959799565b600382805160208101820180518482526020830160208501208183528095505050505050818051602081018201805184825260208301602085012081835280955050505050506000915091509054906101000a900460ff1681565b60006040518060400160405280858152602001838152509050600283604051610dd09190611ddd565b90815260200160405180910390208190806001815401808255809150506001900390600052602060002090600202016000909190919091506000820151816000019081610e1d919061206c565b506020820151816001019081610e33919061206c565b5050506001600385604051610e489190611ddd565b908152602001604051809103902084604051610e649190611ddd565b908152602001604051809103902060006101000a81548160ff02191690831515021790555050505050565b60008073ffffffffffffffffffffffffffffffffffffffff16600084604051610eb89190611ddd565b908152602001604051809103902060009054906101000a900473ffffffffffffffffffffffffffffffffffffffff1673ffffffffffffffffffffffffffffffffffffffff1603610f3d576040517f08c379a0000000000000000000000000000000000000000000000000000000008152600401610f34906121cf565b60405180910390fd5b600183604051610f4d9190611ddd565b9081526020016040518091039020600b01604051602001610f6e9190612272565b6040516020818303038152906040528051906020012082604051602001610f959190611ddd565b6040516020818303038152906040528051906020012014905092915050565b6060600282604051610fc69190611ddd565b9081526020016040518091039020805480602002602001604051908101604052809291908181526020016000905b8282101561114a578382906000526020600020906002020160405180604001604052908160008201805461102790611e8f565b80601f016020809104026020016040519081016040528092919081815260200182805461105390611e8f565b80156110a05780601f10611075576101008083540402835291602001916110a0565b820191906000526020600020905b81548152906001019060200180831161108357829003601f168201915b505050505081526020016001820180546110b990611e8f565b80601f01602080910402602001604051908101604052809291908181526020018280546110e590611e8f565b80156111325780601f1061110757610100808354040283529160200191611132565b820191906000526020600020905b81548152906001019060200180831161111557829003601f168201915b50505050508152505081526020019060010190610ff4565b505050509050919050565b60008073ffffffffffffffffffffffffffffffffffffffff1660008360405161117e9190611ddd565b908152602001604051809103902060009054906101000a900473ffffffffffffffffffffffffffffffffffffffff1673ffffffffffffffffffffffffffffffffffffffff1614159050919050565b60006003836040516111de9190611ddd565b9081526020016040518091039020826040516111fa9190611ddd565b908152602001604051809103902060006101000a81548160ff02191690831515021790555060005b6002826040516112329190611ddd565b908152602001604051809103902080549050811015611461578260405160200161125c9190611ddd565b604051602081830303815290604052805190602001206002836040516112829190611ddd565b908152602001604051809103902082815481106112a2576112a1612289565b5b90600052602060002090600202016000016040516020016112c39190612272565b604051602081830303815290604052805190602001200361144e5760008190505b60016002846040516112f69190611ddd565b90815260200160405180910390208054905061131291906122e7565b8110156113e1576002836040516113299190611ddd565b9081526020016040518091039020600182611344919061231b565b8154811061135557611354612289565b5b90600052602060002090600202016002846040516113739190611ddd565b9081526020016040518091039020828154811061139357611392612289565b5b9060005260206000209060020201600082018160000190816113b59190612365565b50600182018160010190816113ca9190612365565b5090505080806113d99061244d565b9150506112e4565b506002826040516113f29190611ddd565b90815260200160405180910390208054806114105761140f612495565b5b60019003818190600052602060002090600202016000808201600061143591906114e3565b60018201600061144591906114e3565b50509055611461565b80806114599061244d565b915050611222565b505050565b60006003836040516114789190611ddd565b9081526020016040518091039020826040516114949190611ddd565b908152602001604051809103902060009054906101000a900460ff16905092915050565b60006002826040516114ca9190611ddd565b9081526020016040518091039020805490509050919050565b5080546114ef90611e8f565b6000825580601f106115015750611520565b601f01602090049060005260206000209081019061151f9190611523565b5b50565b5b8082111561153c576000816000905550600101611524565b5090565b6000604051905090565b600080fd5b600080fd5b600080fd5b600080fd5b6000601f19601f8301169050919050565b7f4e487b7100000000000000000000000000000000000000000000000000000000600052604160045260246000fd5b6115a78261155e565b810181811067ffffffffffffffff821117156115c6576115c561156f565b5b80604052505050565b60006115d9611540565b90506115e5828261159e565b919050565b600067ffffffffffffffff8211156116055761160461156f565b5b61160e8261155e565b9050602081019050919050565b82818337600083830152505050565b600061163d611638846115ea565b6115cf565b90508281526020810184848401111561165957611658611559565b5b61166484828561161b565b509392505050565b600082601f83011261168157611680611554565b5b813561169184826020860161162a565b91505092915050565b60008060008060008060008060008060006101608c8e0312156116c0576116bf61154a565b5b60008c013567ffffffffffffffff8111156116de576116dd61154f565b5b6116ea8e828f0161166c565b9b505060208c013567ffffffffffffffff81111561170b5761170a61154f565b5b6117178e828f0161166c565b9a505060408c013567ffffffffffffffff8111156117385761173761154f565b5b6117448e828f0161166c565b99505060608c013567ffffffffffffffff8111156117655761176461154f565b5b6117718e828f0161166c565b98505060808c013567ffffffffffffffff8111156117925761179161154f565b5b61179e8e828f0161166c565b97505060a08c013567ffffffffffffffff8111156117bf576117be61154f565b5b6117cb8e828f0161166c565b96505060c08c013567ffffffffffffffff8111156117ec576117eb61154f565b5b6117f88e828f0161166c565b95505060e08c013567ffffffffffffffff8111156118195761181861154f565b5b6118258e828f0161166c565b9450506101008c013567ffffffffffffffff8111156118475761184661154f565b5b6118538e828f0161166c565b9350506101208c013567ffffffffffffffff8111156118755761187461154f565b5b6118818e828f0161166c565b9250506101408c013567ffffffffffffffff8111156118a3576118a261154f565b5b6118af8e828f0161166c565b9150509295989b509295989b9093969950565b6000602082840312156118d8576118d761154a565b5b600082013567ffffffffffffffff8111156118f6576118f561154f565b5b6119028482850161166c565b91505092915050565b600073ffffffffffffffffffffffffffffffffffffffff82169050919050565b60006119368261190b565b9050919050565b6119468161192b565b82525050565b600081519050919050565b600082825260208201905092915050565b60005b8381101561198657808201518184015260208101905061196b565b60008484015250505050565b600061199d8261194c565b6119a78185611957565b93506119b7818560208601611968565b6119c08161155e565b840191505092915050565b6000610140820190506119e1600083018d61193d565b81810360208301526119f3818c611992565b90508181036040830152611a07818b611992565b90508181036060830152611a1b818a611992565b90508181036080830152611a2f8189611992565b905081810360a0830152611a438188611992565b905081810360c0830152611a578187611992565b905081810360e0830152611a6b8186611992565b9050818103610100830152611a808185611992565b9050818103610120830152611a958184611992565b90509b9a5050505050505050505050565b60008060408385031215611abd57611abc61154a565b5b600083013567ffffffffffffffff811115611adb57611ada61154f565b5b611ae78582860161166c565b925050602083013567ffffffffffffffff811115611b0857611b0761154f565b5b611b148582860161166c565b9150509250929050565b60008115159050919050565b611b3381611b1e565b82525050565b6000602082019050611b4e6000830184611b2a565b92915050565b600080600060608486031215611b6d57611b6c61154a565b5b600084013567ffffffffffffffff811115611b8b57611b8a61154f565b5b611b978682870161166c565b935050602084013567ffffffffffffffff811115611bb857611bb761154f565b5b611bc48682870161166c565b925050604084013567ffffffffffffffff811115611be557611be461154f565b5b611bf18682870161166c565b9150509250925092565b600081519050919050565b600082825260208201905092915050565b6000819050602082019050919050565b600082825260208201905092915050565b6000611c438261194c565b611c4d8185611c27565b9350611c5d818560208601611968565b611c668161155e565b840191505092915050565b60006040830160008301518482036000860152611c8e8282611c38565b91505060208301518482036020860152611ca88282611c38565b9150508091505092915050565b6000611cc18383611c71565b905092915050565b6000602082019050919050565b6000611ce182611bfb565b611ceb8185611c06565b935083602082028501611cfd85611c17565b8060005b85811015611d395784840389528151611d1a8582611cb5565b9450611d2583611cc9565b925060208a01995050600181019050611d01565b50829750879550505050505092915050565b60006020820190508181036000830152611d658184611cd6565b905092915050565b6000819050919050565b611d8081611d6d565b82525050565b6000602082019050611d9b6000830184611d77565b92915050565b600081905092915050565b6000611db78261194c565b611dc18185611da1565b9350611dd1818560208601611968565b80840191505092915050565b6000611de98284611dac565b915081905092915050565b7f446f63746f7220616c7265616479207265676973746572656400000000000000600082015250565b6000611e2a601983611957565b9150611e3582611df4565b602082019050919050565b60006020820190508181036000830152611e5981611e1d565b9050919050565b7f4e487b7100000000000000000000000000000000000000000000000000000000600052602260045260246000fd5b60006002820490506001821680611ea757607f821691505b602082108103611eba57611eb9611e60565b5b50919050565b60008190508160005260206000209050919050565b60006020601f8301049050919050565b600082821b905092915050565b600060088302611f227fffffffffffffffffffffffffffffffffffffffffffffffffffffffffffffffff82611ee5565b611f2c8683611ee5565b95508019841693508086168417925050509392505050565b6000819050919050565b6000611f69611f64611f5f84611d6d565b611f44565b611d6d565b9050919050565b6000819050919050565b611f8383611f4e565b611f97611f8f82611f70565b848454611ef2565b825550505050565b600090565b611fac611f9f565b611fb7818484611f7a565b505050565b5b81811015611fdb57611fd0600082611fa4565b600181019050611fbd565b5050565b601f82111561202057611ff181611ec0565b611ffa84611ed5565b81016020851015612009578190505b61201d61201585611ed5565b830182611fbc565b50505b505050565b600082821c905092915050565b600061204360001984600802612025565b1980831691505092915050565b600061205c8383612032565b9150826002028217905092915050565b6120758261194c565b67ffffffffffffffff81111561208e5761208d61156f565b5b6120988254611e8f565b6120a3828285611fdf565b600060209050601f8311600181146120d657600084156120c4578287015190505b6120ce8582612050565b865550612136565b601f1984166120e486611ec0565b60005b8281101561210c578489015182556001820191506020850194506020810190506120e7565b868310156121295784890151612125601f891682612032565b8355505b6001600288020188555050505b505050505050565b600060608201905081810360008301526121588186611992565b9050818103602083015261216c8185611992565b905061217b604083018461193d565b949350505050565b7f446f63746f72206e6f7420726567697374657265640000000000000000000000600082015250565b60006121b9601583611957565b91506121c482612183565b602082019050919050565b600060208201905081810360008301526121e8816121ac565b9050919050565b600081546121fc81611e8f565b6122068186611da1565b94506001821660008114612221576001811461223657612269565b60ff1983168652811515820286019350612269565b61223f85611ec0565b60005b8381101561226157815481890152600182019150602081019050612242565b838801955050505b50505092915050565b600061227e82846121ef565b915081905092915050565b7f4e487b7100000000000000000000000000000000000000000000000000000000600052603260045260246000fd5b7f4e487b7100000000000000000000000000000000000000000000000000000000600052601160045260246000fd5b60006122f282611d6d565b91506122fd83611d6d565b9250828203905081811115612315576123146122b8565b5b92915050565b600061232682611d6d565b915061233183611d6d565b9250828201905080821115612349576123486122b8565b5b92915050565b60008154905061235e81611e8f565b9050919050565b81810361237357505061244b565b61237c8261234f565b67ffffffffffffffff8111156123955761239461156f565b5b61239f8254611e8f565b6123aa828285611fdf565b6000601f8311600181146123d957600084156123c7578287015490505b6123d18582612050565b865550612444565b601f1984166123e787611ec0565b96506123f286611ec0565b60005b8281101561241a578489015482556001820191506001850194506020810190506123f5565b868310156124375784890154612433601f891682612032565b8355505b6001600288020188555050505b5050505050505b565b600061245882611d6d565b91507fffffffffffffffffffffffffffffffffffffffffffffffffffffffffffffffff820361248a576124896122b8565b5b600182019050919050565b7f4e487b7100000000000000000000000000000000000000000000000000000000600052603160045260246000fdfea2646970667358221220b422c10e73af854bf58638df43041f35113a9e85d3d6627b7d80de7e4073225e64736f6c63430008130033",
  "immutableReferences": {},
  "source": "// SPDX-License-Identifier: MIT\r\npragma solidity ^0.8.19;\r\n\r\ncontract DoctorRegistration {\r\n    struct Doctor {\r\n        address walletAddress;\r\n        string doctorName;\r\n        string hospitalName;\r\n        string dateOfBirth;\r\n        string gender;\r\n        string email;\r\n        string hhNumber;\r\n        string specialization;\r\n        string department;\r\n        string designation;\r\n        string workExperience;\r\n        string password;\r\n    }\r\n\r\n    struct PatientList{\r\n        string patient_number;\r\n        string patient_name;\r\n    }\r\n\r\n    mapping(string => address) private doctorAddresses;\r\n    mapping(string => Doctor) private doctors;\r\n    mapping(string => PatientList[]) private Dpermission;\r\n    mapping(string => mapping(string => bool)) public doctorPermissions;\r\n\r\n    event DoctorRegistered(string hhNumber, string doctorName, address walletAddress);\r\n\r\n    function registerDoctor(\r\n        string memory _doctorName,\r\n        string memory _hospitalName,\r\n        string memory _dateOfBirth,\r\n        string memory _gender,\r\n        string memory _email,\r\n        string memory _hhNumber,\r\n        string memory _specialization,\r\n        string memory _department,\r\n        string memory _designation,\r\n        string memory _workExperience,\r\n        string memory _password\r\n    ) external {\r\n        require(doctorAddresses[_hhNumber] == address(0), \"Doctor already registered\");\r\n\r\n        Doctor memory newDoctor = Doctor({\r\n            walletAddress: msg.sender,\r\n            doctorName: _doctorName,\r\n            hospitalName: _hospitalName,\r\n            dateOfBirth: _dateOfBirth,\r\n            gender: _gender,\r\n            email: _email,\r\n            hhNumber: _hhNumber,\r\n            specialization: _specialization,\r\n            department: _department,\r\n            designation: _designation,\r\n            workExperience: _workExperience,\r\n            password: _password\r\n        });\r\n\r\n        doctors[_hhNumber] = newDoctor;\r\n        doctorAddresses[_hhNumber] = msg.sender;\r\n        emit DoctorRegistered(_hhNumber, _doctorName, msg.sender);\r\n    }\r\n\r\n    function isRegisteredDoctor(string memory _hhNumber) external view returns (bool) {\r\n        return doctorAddresses[_hhNumber] != address(0);\r\n    }\r\n\r\n    function getDoctorDetails(string memory _hhNumber) external view returns (\r\n        address _walletAddress,\r\n        string memory _doctorName,\r\n        string memory _hospitalName,\r\n        string memory _dateOfBirth,\r\n        string memory _gender,\r\n        string memory _email,\r\n        string memory _specialization,\r\n        string memory _department,\r\n        string memory _designation,\r\n        string memory _workExperience\r\n    ) {\r\n        require(doctorAddresses[_hhNumber] != address(0), \"Doctor not registered\");\r\n        Doctor memory doctor = doctors[_hhNumber];\r\n        return (\r\n            doctor.walletAddress,\r\n            doctor.doctorName,\r\n            doctor.hospitalName,\r\n            doctor.dateOfBirth,\r\n            doctor.gender,\r\n            doctor.email,\r\n            doctor.specialization,\r\n            doctor.department,\r\n            doctor.designation,\r\n            doctor.workExperience\r\n        );\r\n    }\r\n\r\n    function validatePassword(string memory _hhNumber, string memory _password) external view returns (bool) {\r\n        require(doctorAddresses[_hhNumber] != address(0), \"Doctor not registered\");\r\n        return keccak256(abi.encodePacked(_password)) == keccak256(abi.encodePacked(doctors[_hhNumber].password));\r\n    }\r\n\r\n    function grantPermission(\r\n        string memory _patientNumber,\r\n        string memory _doctorNumber,\r\n        string memory _patientName\r\n    ) external {\r\n            PatientList memory newRecord = PatientList(\r\n                _patientNumber,\r\n                _patientName\r\n            );\r\n            Dpermission[_doctorNumber].push(newRecord);\r\n        doctorPermissions[_patientNumber][_doctorNumber] = true;\r\n    }\r\n\r\n    function isPermissionGranted(string memory _patientNumber,string memory _doctorNumber) external view returns (bool) {\r\n        return doctorPermissions[_patientNumber][_doctorNumber];\r\n    }\r\n\r\n    function revokePermission(string memory _patientNumber, string memory _doctorNumber) public {\r\n        doctorPermissions[_patientNumber][_doctorNumber] = false;\r\n\r\n        // Remove the patient's record from the list\r\n        for (uint i = 0; i < Dpermission[_doctorNumber].length; i++) {\r\n            if (keccak256(abi.encodePacked(Dpermission[_doctorNumber][i].patient_number)) == keccak256(abi.encodePacked(_patientNumber))) {\r\n                // Delete the patient's record by shifting elements\r\n                for (uint j = i; j < Dpermission[_doctorNumber].length - 1; j++) {\r\n                    Dpermission[_doctorNumber][j] = Dpermission[_doctorNumber][j + 1];\r\n                }\r\n                Dpermission[_doctorNumber].pop();\r\n                break;\r\n            }\r\n        }\r\n    }\r\n\r\n\r\n    function getPatientList(string memory _doctorNumber) public view returns (PatientList[] memory) {\r\n        return Dpermission[_doctorNumber];\r\n    }\r\n    function getPatientCount(string memory _doctorNumber) public view returns (uint) {\r\n        return Dpermission[_doctorNumber].length;\r\n    }\r\n\r\n\r\n}\r\n",
  "sourcePath": "C:\\Users\\HP\\OneDrive\\Desktop\\Projects\\Secure-Electronic-Health-Records\\src\\contracts\\DoctorRegistration.sol",
  "compiler": {
    "name": "solc",
    "version": "0.8.19+commit.7dd6d404.Emscripten.clang"
  },
  "schemaVersion": "3.4.16",
  "updatedAt": "2025-04-17T01:01:23.193Z",
  "devdoc": {
    "kind": "dev",
    "methods": {},
    "version": 1
  },
  "userdoc": {
    "kind": "user",
    "methods": {},
    "version": 1
  }
}